:020000040000FA
:060000000A128A110C280F
:10000800FE00030EF0000A08F1000A128A11EF2818
:100018000A128A110F28F501F601F701F801830188
:100028000A128A1192286F28831203130514851067
:100038000511851105128512051385139128831260
:100048000313051085140511851105128512051372
:100058008513912883120313051085100515851142
:1000680005128512051385139128831203130510B1
:10007800851005118515051285120513851391281C
:1000880083120313051085100511851105168512B5
:1000980005138513831203130510851005118511A7
:1000A800051285160513851391288312031305106D
:1000B80085100511851105128516051385139128DC
:1000C8008312031305108510051185110512851675
:1000D8000513851391287708F200F3017308003A95
:1000E8000319772891287208013A03191828033A46
:1000F80003192328013A03192E28073A0319392826
:10010800013A03194428033A03194E28013A0319FE
:1001180059280F3A03196428912808000A128A11ED
:10012800C8200A128A1183120313061C9C289D28D2
:100138009F28F601F60A0618A228A328AD287603F8
:10014800031DA728A828AD28F6010130F40074087B
:10015800F707861CB028B128B328F501F50A8618D8
:10016800B628B728BF287503031DBB28BC28BF289D
:10017800F5010130F7020A128A1117200A128A11B2
:1001880097280A128A110C288316031389018312EF
:10019800031389018316031387018312031387014D
:1001A8008316031385018312031385018316031332
:1001B80086018312031386018316031316149614FB
:1001C8008B178B1588018312031388018316031775
:1001D8008801890108000B1CF228F328F4280B1069
:0E01E80071088A00700E8300FE0E7E0E090064
:04400E00D120FF3F7F
:00000001FF
