:020000040000FA
:060000000A128A11F82F1C
:100EBA00831603138901831203138901831603130B
:100ECA008701831203138701831603138501831293
:100EDA000313850183160313880183120313880100
:100EEA0083160317880189018312031306148614D3
:100EFA0008000A128A115D270A128A118312031343
:100F0A000618882F892F8B2FF101F10A061C8E2FC4
:100F1A008F2F992F7103031D932F942F992FF1016E
:100F2A000130F6007608F20786189C2F9D2F9F2F16
:100F3A00F001F00A861CA22FA32FAB2F7003031D0A
:100F4A00A72FA82FAB2FF0010130F2020A128A1143
:100F5A00B4270A128A11832F0A128A110028D52F60
:100F6A00831203130514F72F831203138514F72F23
:100F7A00831203130515F72F831203138515F72F11
:100F8A00831203130516F72F831203138516F72FFF
:100F9A00831203130517F72F831203138517F72FED
:100FAA007208F400F5017508003A0319DD2FF72FCE
:100FBA007408013A0319B52F033A0319B92F013AF4
:100FCA000319BD2F073A0319C12F013A0319C52F77
:100FDA00033A0319C92F013A0319CD2F0F3A0319FE
:100FEA00D12FF72F0800F001F101F201F30183017B
:060FFA000A128A117E2F8D
:04400E00D120FF3F7F
:00000001FF
