:020000040000FA
:060000000A128A11FB2F19
:100F800008000A128A11D5270A128A118312031344
:100F90009F18CB2FCC2FC62F0A128A11C0270A12F6
:100FA0008A11C62F0A128A110028023083160317ED
:100FB0008800023083160313850083120313850112
:100FC0008B170B17831603130C17831203131F08B9
:100FD000C33904389F00831603131F129F12C030B9
:100FE000831203139F04831603139F1383120313A7
:100FF0009F141F140800F00183010A128A11C12FE7
:04400E00D420FF3F7C
:00000001FF
