:020000040000FA
:060000000A128A11FB2F19
:100F6200831203131E08F1007108F0007008870055
:100F72009F1408000A128A11CF270A128A118312BB
:100F820003139F18C52FC62FC02F0A128A11B1272B
:100F92000A128A11C02F0A128A11002802308316FF
:100FA200031788000230831603138500831203138C
:100FB20085018316031387018312031387018B179D
:100FC2000B17831603130C17831203131F08C3395D
:100FD20004389F00831603131F129F12C03083121E
:100FE20003139F04831603139F13831203139F1487
:0E0FF2001F140800F00183010A128A11BB2FA0
:04400E00D420FF3F7C
:00000001FF
